:020000040800F2
:10000000180B0020C1010008C9010008CB0100083D
:10001000CD010008CF010008D10100080000000058
:10002000000000000000000000000000D3010008F4
:10003000D501000800000000D7010008D901000820
:10004000DB010008DB010008DB010008DB01000820
:10005000DB010008DB010008DB010008DB01000810
:10006000DB010008DB010008DB010008DB01000800
:10007000DB010008DB010008DB010008DB010008F0
:10008000DB010008DB010008DB010008DB010008E0
:10009000DB010008DB010008DB010008DB010008D0
:1000A000DB010008DB010008DB010008DB010008C0
:1000B000DB010008DB010008DB010008DB010008B0
:1000C000DB010008DB010008DB010008DB010008A0
:1000D000DB010008DB010008DB010008DB01000890
:1000E000DB010008DB010008DB010008DB01000880
:1000F000DB010008DB010008DB010008DB01000870
:10010000DB010008DB010008DB010008DB0100085F
:10011000DB010008DB010008DB010008DB0100084F
:10012000DB010008DB010008DB010008DB0100083F
:10013000DB010008DB010008DB010008DB0100082F
:10014000DB010008DB010008DB010008DB0100081F
:10015000DB010008DB010008DB010008DB0100080F
:10016000DB010008DB010008DB010008DB010008FF
:10017000DB010008DB010008DB010008DB010008EF
:10018000DB010008DB010008DB010008DB010008DF
:10019000DB010008DB010008DB010008DB010008CF
:1001A0000000000000000000DB010008DFF80CD0B8
:1001B00000F018F800480047C70B0008180B002093
:1001C0000648804706480047FEE7FEE7FEE7FEE7F1
:1001D000FEE7FEE7FEE7FEE7FEE7FEE77107000841
:1001E000AD010008064C074D06E0E06840F0010351
:1001F00094E8070098471034AC42F6D3FFF7DAFFD3
:10020000F40B0008140C0008F0B50A460021002386
:10021000002400BF3DE0012505FA01F3156805EA59
:1002200003049C4234D105684F000326BE40B54309
:10023000056015794E00B5400668354305601579AF
:10024000012D02D01579022D16D185684F000326A5
:10025000BE40B543856055794E00B540866835434C
:100260008560456801268E40B543456045689679AE
:100270008E40B6B235434560C5684F000326BE4088
:10028000B543C560D5794E00B540C6683543C560F5
:10029000491C1029BFD3F0BDF0B5002300244D0741
:1002A000ED0E02FA05F3CE1000F1200555F82650A8
:1002B0004E07F70E0F26BE40B543CF1000F12006C3
:1002C00046F82750CE1000F1200555F8265045EA93
:1002D0000304CE1000F1200545F82640F0BD21B101
:1002E000028842F48062028004E002884FF6FF3305
:1002F0001A400280704770B5024600240025002392
:100300000020958A138B1B0445EA030626F07F44E0
:1003100004EA01068E4201D1012000E0002070BDF8
:1003200021B1028842F00102028004E002884FF607
:10033000FE731A400280704710B504461348844289
:1003400009D10121480500F0FFF800214FF4001009
:1003500000F0FAF818E00E48844209D1012188051E
:1003600000F0F2F800214FF4800000F0EDF80BE00F
:100370000848844208D10121C80500F0E5F80021B1
:100380004FF4000000F0E0F810BD00000054004001
:1003900000580040005C004021B1028842F48072A5
:1003A000028004E002884FF6FF631A400280704723
:1003B00021B1028842F40072028004E002884FF604
:1003C000FF531A40028070470CB5024600200023FC
:1003D0000193009300920B0F019321F07F41019B49
:1003E0001BB1009B1433009303E0090C009B1833EE
:1003F0000093009B1B680B400BB1012000E0002024
:100400000CBD00002DE9FF4704460D460026B1460D
:100410000427DFF8CC80A6884FF6C07006406846F7
:1004200000F0A2F8DDF808802E48B8FBF0F01FFAC3
:1004300080F946EA0906A68020884FF6FE7108403A
:10044000208000262849286888420CD82868400067
:10045000B8FBF0F087B2042F00DA04273E4309F11D
:100460000100208427E0E8884BF6FF71884206D11E
:10047000286800EB4000B8FBF0F087B209E028687C
:1004800000EBC00101EB0010B8FBF0F087B247F4BD
:100490008047C7F30B0008B947F0010747F4004055
:1004A00006434FF4967009FB00F04FF47A7190FB0D
:1004B000F1F0401C2084A683208840F001002080B9
:1004C00026884FF6F5300640A88869890843064318
:1004D0002680A889298908432081BDE8FF8700007C
:1004E00000127A0040420F00A08601000146088AEF
:1004F000C0B2704712B141F0010101E001F0FE010C
:10050000018270470182704729B1064A126802438E
:10051000044B1A6004E0034A12688243014B1A60DC
:10052000704700003038024029B1064A1268024381
:10053000044B1A6004E0034A12688243014B1A60BC
:10054000704700004038024029B1064A1268024351
:10055000044B1A6004E0034A12688243014B1A609C
:100560007047000020380240F0B50021002200242E
:10057000022500260223324F3F6807F00C0121B10B
:10058000042905D0082937D105E02E4F076036E051
:100590002D4F076033E02A4F3F1F3F68C7F3805657
:1005A000274F3F1F3F6807F03F036EB1264FB7FB51
:1005B000F3F7DFF88CC0ACF1040CDCF800C0CCF32E
:1005C000881C07FB0CF40CE01E4FB7FBF3F7DFF8B9
:1005D00070C0ACF1040CDCF800C0CCF3881C07FB45
:1005E0000CF4174F3F1F3F68C7F301477F1C7D0086
:1005F000B4FBF5F7076002E0124F076000BF00BFD1
:100600000F4F3F6807F0F0010909104F7A5C076847
:10061000D74047600A4F3F6807F4E051890A0B4F03
:100620007A5C4768D7408760054F3F6807F46041B0
:10063000490B064F7A5C4768D740C760F0BD0000A1
:10064000083802400024F40000127A000000002064
:100650000CB50020019000904148006840F48030C3
:100660003F49086000BF3E48006800F40030009039
:100670000198401C0190009818B90198B0F5A04F5E
:10068000F1D13748006800F4003010B1012000902B
:1006900001E0002000900098012860D130484030EF
:1006A000006840F080502E49403108602D480068B5
:1006B00040F440402B490860294808300068284928
:1006C000083108600846006840F4004008600846A9
:1006D000006840F4A05008602348091F0860081F04
:1006E000006840F08070091F086000BF1C48006867
:1006F00000F000700028F9D01A48006840F48030FB
:100700001849086000BF1748406800F4803000288E
:10071000F9D01448006840F400301249086000BF66
:100720001048406800F400300028F9D040F205700D
:100730000E4908600A480830006820F003000849A4
:10074000083108600846006840F00200086000BFF9
:1007500003480830006800F00C000828F8D10CBDF0
:100760000038024000700040085A4007003C024038
:1007700010B51548006840F470001349086013482C
:10078000006840F001001149086000200F4908315D
:1007900008600E4800680E4908400C4908600D4882
:1007A000091D0860081F006820F48020091F0860E8
:1007B000002006490C310860FFF74AFF4FF0006047
:1007C00001498039086010BD88ED00E00038024022
:1007D000FFFFF6FE1030002402E008C8121F08C117
:1007E000002AFAD170477047002001E001C1121FB2
:1007F000002AFBD1704700001CB501200321002313
:100800000246CDE900108102114800F0BFF9012035
:10081000032100230246CDE9001040210D4800F0DD
:10082000B5F90120032100230246CDE9001004217F
:10083000094800F0ABF94FF4806005491831088091
:1008400040200449488304200349183108801CBD16
:10085000000C0240000002400008024001461C4813
:10086000814201D1012070471A48814201D1022002
:10087000F9E71948814201D10420F4E71748814281
:1008800001D10820EFE71648814201D11020EAE7A4
:100890001448814201D12020E5E71348814201D16B
:1008A0004020E0E71148814201D18020DBE7104879
:1008B000814201D18015D6E70E48814201D1401511
:1008C000D1E70D48814201D10015CCE70020CAE7ED
:1008D000000002400004024000080240000C0240F8
:1008E000001002400014024000180240001C0240A8
:1008F00000200240002402400028024000B50246C9
:10090000104600F065F9024951F8200000BD0000D2
:10091000140000201CB5002000F030F8012001ABCD
:100920007522D0210090002000F008F89DF8040006
:10093000712801D101201CBD0020FCE72DE9FF41F9
:1009400004460E461D460A9F00223146204600F00E
:10095000B5F82246012102A800F0FAF8204600F07E
:10096000EBF801223146204600F0A8F8224639462D
:10097000284600F077F804B0BDE8F08130B587B0C4
:100980000546284600F024F90446FFF735FF2B49B9
:1009900051F824000121FFF7B7FD294830F8140071
:1009A000284931F814100843019002208DF80800FE
:1009B00001208DF80A008DF80B0003208DF8090046
:1009C000214951F8240001A9FFF71EFC1F4B1A5DB5
:1009D0001F4B195D1C4B53F82400FFF75DFC1B4BAC
:1009E0001A5D1C4B195D184B53F82400FFF754FC9B
:1009F000194951F824000121FFF796FD174951F8D4
:100A00002400FFF799FC0020ADF810004FF480603F
:100A1000ADF81600124803904FF48040ADF818006E
:100A20000E4951F8240003A9FFF7ECFC0B4951F8DB
:100A300024000121FFF774FC07B030BDE00B000873
:100A4000EE0B0008EC0B000810000020F20B000871
:100A5000F00B0008F10B0008E40B00081400002064
:100A6000801A06002DE9F04106460D461746384625
:100A7000FFF744FF804601214046FFF730FC002489
:100A800015E0681EA04206D100214046FFF727FC72
:100A9000384600F051F800BF07494046FFF72BFCED
:100AA0000028F9D04046FFF721FD3055641CAC42C8
:100AB000E7DB0120BDE8F081400003002DE9F041B3
:100AC00005460E4614462846FFF718FF074600BFA6
:100AD0004FF400313846FFF777FC0028F8D10121A8
:100AE0003846FFF759FC00BF11493846FFF703FCB1
:100AF0000028F9D0E2B231463846FFF7FBFC3CB99A
:100B000000BF0C493846FFF7F6FB0028F9D00DE08E
:100B1000012C08D100BF0649491C3846FFF7EBFB02
:100B20000028F8D002E00020BDE8F0810120FBE7BA
:100B3000010003008200070070B504462046FFF75D
:100B4000DDFE05460121FFF733FC012070BD0000EA
:100B50002DE9F04105460E4617463846FFF7CEFE12
:100B6000804600240BE0295D4046FFF7CBFC00BF28
:100B700005494046FFF7BFFB0028F9D0641CB4428A
:100B8000F1DB0120BDE8F081840007002DE9FC477E
:100B900006468A4614461D46DDE90A783046FFF7C8
:100BA0005DFE81460121FFF7AFFC8DF804408DF812
:100BB00006508DF805708DF8078069463046FFF7BE
:100BC00023FBBDE8FC8710B5FFF7A4FE012010BD94
:100BD000014609B9002070474FF0FF30FBE70000E5
:100BE0000200000000004000000040000008000477
:100BF0000B0A0404140C0008000000201800000078
:100C0000D80700082C0C000818000020000B00007A
:100C1000E8070008000000000102030401020304C9
:0C0C2000060708090004024000580040CC
:04000005080001AD41
:00000001FF
